:020000040800F2
:10000000A0050020A10100082B1B000865180008AE
:10001000291B0008C9020008192000080000000080
:100020000000000000000000000000002F1B00087E
:10003000CB020008000000002D1B0008311B000847
:10004000BB010008BB010008BB010008BB010008A0
:10005000BB010008BB010008BB010008BB01000890
:10006000BB010008BB010008BB010008BB01000880
:10007000BB010008BB010008BB010008BB01000870
:10008000BB010008BB010008BB010008BB01000860
:10009000BB010008BB010008BB010008BB01000850
:1000A000BB010008BB010008BB010008BB01000840
:1000B000DD1B0008E91B0008BB010008BB010008AC
:1000C000BB010008BB010008BB010008BB01000820
:1000D000BB0100080D200008BB010008BB0100089F
:1000E000BB010008BB010008BB010008BB01000800
:1000F000BB010008BB010008BB010008BB010008F0
:10010000BB010008BB010008BB010008BB010008DF
:10011000BB010008BB010008BB010008F51B00087B
:10012000BB010008BB010008BB010008BB010008BF
:10013000BB010008BB010008BB010008BB010008AF
:10014000BB010008BB010008BB010008BB0100089F
:10015000BB010008BB010008BB010008BB0100088F
:10016000BB010008BB010008BB010008BB0100087F
:10017000BB010008BB010008BB0100080000000033
:10018000BB010008BB010008DFF810D000F08AF8BE
:1001900000480047A5200008AFF30080A00500201C
:1001A0000648804706480047FEE7FEE7FEE7FEE711
:1001B000FEE7FEE7FEE7FEE7FEE7FEE7CD1B0008F1
:1001C000890100082DE9F05F0546002092469B4614
:1001D00088460646814640241BE02846414647465D
:1001E000224600F04FF853465A46C01A914110D3A8
:1001F00011461846224600F036F82D1A67EB010822
:100200004F4622460120002100F02DF817EB00098F
:100210004E41201EA4F10104DFDC484631462A4647
:100220004346BDE8F09FD2B201E000F8012B491E21
:10023000FBD270470022F6E710B513460A46044683
:100240001946FFF7F0FF204610BD10B5002200E070
:10025000521C835C8C5CA34201D1002BF8D1D8B234
:10026000E1B2401A10BD202A04DB203A00FA02F164
:10027000002070479140C2F1200320FA03F3194394
:1002800090407047202A04DB203A21FA02F0002136
:10029000704721FA02F3D040C2F120029140084396
:1002A00019467047064C074D06E0E06840F0010330
:1002B00094E8070098471034AC42F6D3FFF768FF84
:1002C0005421000874210008FEE7704772B6FEE76B
:1002D00070B54379012B15D00124447102230371B9
:1002E00003681D6801F010014FF47C668E4042F0F7
:1002F0008002B5438A4015431D600471002141719D
:10030000084670BD022070BD70B54379012B1CD02A
:10031000012646710223037105682B6802F0100460
:1003200040F6FE72A2409343D1E900210A43A24065
:100330001A432A6001680A68C023A3409A430A60EE
:10034000067100214171084670BD022070BD70B574
:10035000040003D02079002510B105E0012070BD14
:100360006571204600F008F8022020712561012007
:100370002071002070BD000010B586B00446142125
:100380006846FFF757FF1149206888421CD1104882
:100390000021026842F000520260006800F0005044
:1003A00005900B481038026842F0010202600068B4
:1003B00000F001000590302000900320CDE90101FC
:1003C0006946044800F0B0F806B010BD0074004063
:1003D000403802400000024018B5046800940068EC
:1003E000104421B1143000900360002018BD083083
:1003F000F9E770B54279012A1ED001224271022329
:1004000003710468266801F0100302FA03F52E4315
:1004100026600029016811D00C6804F470153C2492
:100420009C40A54203D14B6843F002034B6002712C
:1004300000214171084670BD022070BD0B68C3F3F6
:1004400083030F2BF3D14B6843F00103EEE72DE953
:10045000F0410446876D00F065F9064694F83500D2
:100460000025022806D08020606584F834500120E1
:10047000BDE8F0812068016821F016010160206864
:10048000416921F080014161206C08B9A06C20B164
:100490002068016821F0080101602068016821F0EE
:1004A000010101600CE000F03DF9801B052807D92F
:1004B00020206065032084F8350084F83450D7E7A5
:1004C00020680068C007EED194F85C103F20884097
:1004D000B860012084F8350084F834500020C7E764
:1004E00090F83510022903D0802141650120704722
:1004F000052180F835100068016821F001010160D4
:100500000020704770B5044600F00CF90546601CE9
:1005100002D004480078044400F004F9401BA042D3
:10052000FAD370BD100000202DE9F84FDFF8BCA110
:10053000002201250AF1040B03264FF00F090BF1ED
:10054000040E00BF0B6805FA02F42340A34270D1E9
:100550000F7907F00307012F01D0022F16D187680A
:100560004FEA420806FA08FC27EA0C07D1F80CC04B
:100570000CFA08FC4CEA070CC0F808C04768A7430F
:100580000C79C4F3001494403C4344600C79E44378
:10059000A4070AD0C4684FEA420C06FA0CF7BC4321
:1005A0008F6807FA0CF72743C7600C7904F003043F
:1005B000022C12D1D40800EB840CDCF82040570741
:1005C000FF0E09FA07F824EA0804D1F8108008FAA7
:1005D00007F848EA0408CCF8208004684FEA420C87
:1005E00006FA0CF7BC430F7907F0030707FA0CF77C
:1005F000274307604C6814F4403F70D03C4C276898
:1006000047F480472760246822F0030704F48044FD
:100610000094384C07EB040CDCF8084897074FEAC5
:10062000177809FA08F7BC43334FB84202D10027C4
:1006300024E054E0314FB84201D101271EE0304F91
:10064000B84201D1022719E02E4FB84201D1032749
:1006500014E02D4FB84201D104270FE02B4FB842D0
:1006600001D105270AE02A4FB84201D1062705E04B
:10067000284FB84201D1072700E0082707FA08F7FA
:100680002743CCF80878DAF800405746D1F804C080
:100690009C435FEACC3C00D51C433C60DBF8004047
:1006A0005F46D1F804C09C435FEA8C3C00D51C43F4
:1006B0003C60DEF800407746D1F804C09C435FEA16
:1006C000CC2C00D51C433C60084F0C373C68D1F85B
:1006D00004C09C435FEA8C2C00D51C433C60521C38
:1006E000102AFFF42FAFBDE8F88F0000003C014056
:1006F0004438024000300140000002400004024043
:1007000000080240000C02400010024000140240A9
:1007100000180240001C02400AB1816170470904C0
:10072000FBE70000014880687047000010000020CF
:1007300002488168027811448160704710000020EF
:100740000B4810B5016841F400710160016841F483
:1007500080610160016841F480710160032000F054
:100760006FF8002000F006F800F024F8002010BD1B
:10077000003C024070B50D4D04464FF47A71287864
:10078000B1FBF0F00A490968B1FBF0F000F00CFB96
:1007900048B9102C07D200222146501E00F030F834
:1007A00000206C6070BD012070BD000010000020B2
:1007B0001C0000200A4808B5016841F4804101602E
:1007C000006800F4804000900548001F016841F077
:1007D00080510160006800F08050009008BD00006A
:1007E00044380240002809DB00F01F02012191403B
:1007F0004009800000F1E020C0F8001170470000BF
:10080000F0B40E4B1B680C46C3F30223C3F107057B
:10081000042D00D90425191D072901D2002300E069
:10082000DB1E012606FA05F1491E214099409E4033
:10083000761E16403143F0BC01F0F8BB0CED00E031
:10084000064900F0070208684FF6FF03184040EA27
:100850000220034A10430860704700000CED00E0DE
:100860000000FA052DE9F0470E46050065D0DFF8D7
:100870001481D8F80000F7B200F00700B04207D2A8
:1008800088F80070D8F8000000F00700B04254D19A
:1008900028683D4C810712D5400703D5206840F4F5
:1008A000E05020602878000703D5206840F46040BD
:1008B00020602068A96820F0F000084320602878B4
:1008C000C0072DD0304968680839012812D00228A5
:1008D00013D0032811D00968890700292DDA21686F
:1008E00021F0030101432160FFF71CFF814641F223
:1008F000883A0EE009688903EFE709688901ECE7A7
:10090000FFF710FFA0EB0901514502D90320BDE814
:10091000F0872068696800F00C00B0EB810FEFD120
:10092000D8F80010404601F00701B14207D907701E
:10093000006800F00700B04201D00120E7E7287806
:10094000400705D52068E96820F4E050084320609E
:100950002878000706D52068296920F4604040EA1D
:10096000C100206000F038F82168084AC1F3031183
:10097000515CC8400649086006480068FFF7FAFE67
:100980000020C4E7003C0240083802403C21000837
:100990001C00002014000020044805490068096874
:1009A000044AC1F38221515CC84070471C000020FA
:1009B000083802404C2100080448054900680968CD
:1009C000044AC1F34231515CC84070471C0000200A
:1009D000083802404C210008154810B5006810F096
:1009E0000C02144813D01449042A0FD0082A0ED13F
:1009F0000F4C241F2268236802F03F025B0207D5D8
:100A00002068C0F38810A0FB010106E0084610BD75
:100A10002168C1F38811A1FB00010023FFF7D2FB7D
:100A20002168C1F30141491C4900B0FBF1F010BD40
:100A3000083802400024F40040787D012DE9F84F89
:100A400004006ED02078DFF84C93C007A9F10405AC
:100A50004AD009F104000168C1F38101012908D0DD
:100A60000068C0F3810002280AD1D9F800004002D2
:100A700006D52868800337D560680028E1D033E0C8
:100A80006068B0F5803F10D0B0F5A02F286810D076
:100A900020F480302860286820F480202860606876
:100AA000A8B1FFF73FFE06460DE0286840F480300D
:100AB000F4E740F480202860F7E700BFFFF732FE3C
:100AC000801B642873D828688003F7D50CE0FFF7F3
:100AD00029FE064605E000BFFFF724FE801B6428C0
:100AE000F0D828688003F7D42078DFF8AC8280073C
:100AF0004FF0000A3ED5A748001D016811F00C0F09
:100B000008D00068C0F3810002280BD1D9F800009A
:100B1000400207D42868800716D5E068012800D174
:100B200012E033E1E068B8B10120C8F80000FFF737
:100B3000F9FD064605E000BFFFF7F4FD801B022823
:100B4000C0D828688007F7D52868216920F0F80008
:100B500040EAC10028600DE0C8F800A0FFF7E2FD00
:100B6000064604E0FFF7DEFD801B02281FD8286838
:100B70008007F7D42078000722D5864F874861691F
:100B8000703771B101210160FFF7CCFD064604E02A
:100B9000FFF7C8FD801B022809D838688007F7D501
:100BA0000EE0C0F800A0FFF7BDFD064605E082E0BC
:100BB000FFF7B8FD801B02287DD838688007F7D47E
:100BC0002078400768D5DFF8CCB100270BF13C0B4B
:100BD000DBF80000C0000BD4DBF8001041F08051BE
:100BE000CBF80010DBF80000012700F080500090E7
:100BF0006B4E3068C00510D4306840F480703060AF
:100C0000FFF790FD009005E0FFF78CFD0099401A7A
:100C1000022850D83068C005F6D55E4EA0686C3604
:100C200001280FD00528306810D020F00100306076
:100C3000306820F004003060A068B8B1FFF772FDA2
:100C400000900FE0306840F00100F4E740F004004D
:100C50003060F7E7FFF766FD0099411A41F28830EE
:100C6000814266D830688007F4D50EE0FFF75AFD60
:100C7000009007E0FFF756FD0099411A41F28830D5
:100C8000814256D830688007F4D42FB1DBF80010C9
:100C900021F08051CBF80010A069C8B33D49091D6F
:100CA0000968C1F3810102294AD00228504607D0C1
:100CB000C8F8600000E03CE0FFF734FD04463BE08C
:100CC0004746C8F86000FFF72DFD064605E000BF67
:100CD000FFF728FD801B02282BD828688001F7D455
:100CE000D4E907010843A16A2E4A490802EB0141F1
:100CF000626A41EA8211084394F82C1040EA0161CB
:100D0000C9F8001001203866FFF70CFD044606E024
:100D10003EE000BFFFF706FD001B022809D8286847
:100D20008001F7D534E000BFFFF7FCFC001B022870
:100D300002D90320BDE8F88F28688001F4D427E0A9
:100D40000128F7D0D9F80000E26900F4800191424F
:100D50001CD1226A00F03F01914217D147F6C071C1
:100D6000626A0140B1EB821F10D1A26A4FF0FF33DB
:100D700000F4403103EB5202B1EB024F06D194F87C
:100D80002C1000F07060B0EB016F01D00120D1E7B2
:100D90000020CFE70438024000004742800E47425F
:100DA000007000400000FFFF10B5401EB0F1807FD2
:100DB00001D3012010BD4FF0E02460610F216017C6
:100DC00001F034F90020A06107202061002010BD4F
:100DD0007047704770B590F83C20012A32D001244A
:100DE00080F83C40022280F83D2003685A689D68E4
:100DF00022F070060A6832435A60134B02689A4226
:100E000014D0B2F1804F11D0104B9A420ED0104B3B
:100E10009A420BD00F4B9A4208D00F4B9A4205D002
:100E20000E4B9A4202D00E4B9A4204D1496825F0EB
:100E300080031943916080F83D40002180F83C1008
:100E4000084670BD022070BD000001400004004053
:100E500000080040000C0040000401400040014038
:100E60000018004010B5040003D094F83D0010B104
:100E700007E0012010BD002084F83C00204600F06F
:100E80001FF8022084F83D00211D206800F0B8FE04
:100E9000012084F8460084F83E0084F83F0084F87E
:100EA000400084F8410084F8420084F8430084F84C
:100EB000440084F8450084F83D00002010BD000087
:100EC00008B501682248B1F1804F11D0214A914202
:100ED0001DD1016841F0020101600068002200F0AC
:100EE0000200009004211D20FFF78AFC1D202BE04A
:100EF000016841F0010101600068002200F001007A
:100F0000009003211C20FFF77BFC1C201CE0124AF0
:100F1000914208D1016841F010010160006800F0C1
:100F20001000009008BD0D4A9142FBD1016841F0CC
:100F3000200101600068002200F0200000900221E2
:100F40003720FFF75DFC3720BDE80840FFF74ABCBB
:100F500040380240000400400010004000140040EF
:100F600090F83D10012901D001207047022180F83E
:100F70003D1000681149884214D0B0F1804F11D063
:100F80000F4988420ED00F4988420BD00E49884243
:100F900008D00E49884205D00D49884202D00D493B
:100FA000884204D1816801F00701062903D0016855
:100FB00041F0010101600020704700000000014085
:100FC0000004004000080040000C00400004014004
:100FD000004001400018004090F83D10012901D068
:100FE00001207047022180F83D100168CA6842F074
:100FF0000102CA6000681149884214D0B0F1804FE4
:1010000011D00F4988420ED00E4988420BD00E49AC
:10101000884208D00D49884205D00D49884202D047
:101020000C49884204D1816801F00701062903D0E8
:10103000016841F00101016000207047000001409B
:101040000004004000080040000C00400004014083
:10105000004001400018004001680A6A41F2111383
:101060001A4207D10A6A9B101A4203D10A6822F079
:1010700001020A60012180F83D10002070470168DC
:10108000CA6822F00102CA6001680A6A41F21113BB
:101090001A4207D10A6A9B101A4203D10A6822F049
:1010A00001020A60012180F83D100020704770B5F0
:1010B000044690F83C000025012817D0012684F84A
:1010C0003C60022084F83D002068826822F07702AC
:1010D00022F47F4282600868502838D00DDC202836
:1010E0004FD005DC90B3102811D14AE0022070BD2A
:1010F000302846D040280AD13BE060282FD0702805
:101100000DD0B0F5805F03D0B0F5005F12D001259F
:1011100084F83D60002084F83C00284670BDCB6810
:10112000D1E90121206800F0CFFD2068816841F0FD
:10113000770109E0CB68D1E90121206800F0C4FD06
:101140002068816841F480418160E1E719E0CA6864
:101150004968206800F0CAFD5021206806E0CA688E
:101160004968206800F0D3FD6021206800F0B6FDDA
:10117000CEE7CA684968206800F0B8FD40212068C1
:10118000F4E7226801461046F0E7704770B5044660
:10119000006801694FF00005C943890715D4C1688B
:1011A000C943890711D4E91E016101202077206815
:1011B00080698007204602D0FFF7E7FF04E000F0D7
:1011C00098F8204600F096F8257720680169C94311
:1011D000490717D4C168C943490713D46FF0040104
:1011E0000161022020772068806910F4407F20464A
:1011F00002D0FFF7CAFF04E000F07BF8204600F0C1
:1012000079F8257720680169C943090716D4C168B0
:10121000C943090712D46FF0080101610420207747
:101220002068C0698007204602D0FFF7AEFF04E0C7
:1012300000F05FF8204600F05DF82577206801692E
:10124000C943C90617D4C168C943C90613D46FF08E
:1012500010010161082020772068C06910F4407FE8
:10126000204602D0FFF791FF04E000F042F820464C
:1012700000F040F8257720680169C943C90708D103
:10128000C168C943C90704D1891E0161204600F025
:1012900033F820680169C943090609D4C168C94304
:1012A000090605D46FF0800101612046FFF790FD2B
:1012B00020680169C943490609D4C168C943490680
:1012C00005D46FF040010161204600F06BF8206802
:1012D0000169C94389060BD4C168C943890607D48B
:1012E0006FF0200101612046BDE87040FFF771BD3D
:1012F00070BD7047704700002DE9F0412349054655
:101300000068096888422FD1214E012240213046D1
:10131000FFF702FA40F2D2740220401CA042FCDB2C
:10132000002240213046FFF7F7F91A4F012204212D
:101330003846FFF7F1F941F692210220401C88421D
:10134000FCDB002204213846FFF7E6F90122802168
:101350003046FFF7E1F90220401CA042FCDB0022EE
:1013600080213046FFF7D8F90B4928680968884280
:101370000AD10A4C0022102109486368FFF72CF8B3
:10138000D4E9010108446060BDE8F081100100204B
:101390000004024000080240380000200000002045
:1013A000240000207047704770470000F8B50168BE
:1013B00004460868CA684B6910F00F0F4FF000052B
:1013C00059D003F0010602F49077374365D0C10786
:1013D00005D0D10503D5216C41F0010121644107FD
:1013E00005D5D90703D0216C41F0020121648107A2
:1013F00005D5D90703D0216C41F004012164010710
:1014000007D502F02001314303D0216C41F00801DF
:101410002164216C00293AD0800604D5900602D5BB
:10142000204600F0B5FC20684069216CC0F38010B4
:10143000090700D460B3204600F083FC20684069AF
:10144000400621D52068143050E8001F21F04001EB
:1014500040E80012002AF5D1A06BA8B16C490165E3
:10146000A06BFFF73DF8002811D0A06B016D01B013
:10147000BDE8F040084783060FD593060DD52046FA
:10148000BDE8F84000F084BC2046FFF78DFFF8BDB2
:101490002046FFF789FF2564F8BD266B2023012E27
:1014A00079D1C60677D5D60675D508684868009004
:1014B0004869400640D5A16B086840680004000CEC
:1014C000EAD0A28D8242E7D9E085C869B0F5807F75
:1014D0002DD020680C3050E8001F21F4807140E8C6
:1014E0000012002AF5D12068143050E8001F21F0C6
:1014F000010140E80012002AF5D12068143050E8BC
:10150000001F21F0400140E80012002AF5D184F8C4
:101510003E30256320680C3050E8001F21F0100198
:1015200040E80012002AF5D1A06BFEF790FFA08DD5
:10153000E18D401A81B229E0A08DE18D401A81B27F
:10154000E08D0028A8D00029A6D020680C3050E8F3
:10155000002F22F4907240E80026002EF5D120687A
:10156000143050E8002F22F0010240E80026002E3F
:10157000F5D184F83E30256320680C3050E8002F08
:1015800022F0100240E80023002BF5D12046FFF79F
:101590000AFFF8BDFFE705062BD5150629D594F8F7
:1015A0003D002128F5D1A068B0F5805F01D1206908
:1015B000B0B1206A411C2162216800784860E08C4B
:1015C000401E0004000CE084E3D12068C16821F0D3
:1015D0008001C1602068C16841F04001C160D8E766
:1015E000206A0088C0F308004860206A801C2062DE
:1015F000E5E74006CDD55006CBD5CA68204622F097
:101600004002CA6084F83D3000F02BF9C1E70000C9
:10161000331D000870B5040004D094F83D00002587
:1016200010B106E0012070BD84F83C50204600F067
:1016300023F8242084F83D002068C16821F400517B
:10164000C160204600F004FC2068016921F490414B
:1016500001612068416921F02A0141612068C16867
:1016600041F40051C1602564202084F83D0084F8D5
:101670003E00002070BD000010B586B00446142165
:101680006846FEF7D7FD18492068884229D11748D7
:101690000021026842F010020260006800F01000B1
:1016A000059012481438026842F001020260006896
:1016B00000F0010005904FF4C06000900220CDE9D9
:1016C0000101032003900720049069460848FEF7B3
:1016D0002BFF002201212520FFF792F82520FFF79C
:1016E00081F806B010BD00000010014044380240EF
:1016F0000000024090F83E30202B0ED159B152B17B
:1017000090F83C30012B08D0012380F83C300023B6
:10171000036300F023BC01207047022070470000E3
:1017200010B510A11048FEF790FD0F4C0C3C70B1A5
:101730000EA10D48FEF789FD70B10DA000F06EFC02
:10174000BDE81040032208491048FFF7D3BF10A09E
:1017500000F064FC022003E011A000F05FFC032015
:101760002070EDE7737474000C0000207374700037
:10177000506C656173652073656C65637420616E80
:101780006F74686572206B657973000058010020E2
:10179000537461727420746F20776F726B00000055
:1017A00053746F7020776F726B696E670000000072
:1017B0002DE9F843044690F83D001F4616460D46B5
:1017C00020284CD1C5B1BEB194F83C00012846D0C8
:1017D000012084F83C004FF00008C4F8408021202C
:1017E00084F83D00FEF79EFFA6848146E684A0684B
:1017F000B0F5805F03D004E00120BDE8F8832069E4
:1018000028B12E465FF0000584F83C800EE00026EB
:10181000FAE78021204600F0BCFBA0B9AEB116F873
:10182000010B21684860E08C401EE084E08C4B4650
:101830004FF0000200970028EBD14FF04001204606
:1018400000F0A7FB30B10320D7E735F8020BC0F357
:101850000800E6E7202084F83D000020CDE70220C4
:10186000CBE77047FEE700001CB500241F49009439
:101870001D48019408600846FEF769FD08B1FEF7AF
:1018800025FD0420CDE90004002269461748FEF733
:101890003BFD08B1FEF71AFD4FF40062002113482A
:1018A000FEF716FD08B1FEF711FD102269460F483C
:1018B0000094FEF729FD08B1FEF708FD00210B4852
:1018C000FEF797FD10210948FEF793FD00223C2307
:1018D00011460648FEF780FD3C23002210210348F4
:1018E000FEF77AFD1CBD00000074004024000020BB
:1018F000F0B587B014216846FEF79CFC214800240F
:10190000016841F080010160016801F080010591EA
:10191000016841F004010160016801F004010591D2
:10192000016841F001010160016801F001010591C8
:10193000016841F0020101600068134E00F00200EE
:10194000059000220C213046FEF7E6FE0F4F0022E4
:10195000C0213846FEF7E0FE0C2000900125CDE9BD
:101960000154694630460394FEF7DEFDC020009026
:10197000CDE90154694638460394FEF7D5FD07B01A
:10198000F0BD000030380240000802400004024070
:1019900010B586B000241748009401940294039473
:1019A00004944FF080410594016044F61F61C0E942
:1019B000011442F2E401C0E903148461FFF752FA12
:1019C00008B1FEF783FC4FF4805000906946094847
:1019D000FFF76DFB08B1FEF779FC049404A90548F4
:1019E0000594FFF7F7F9002801D0FEF76FFC06B069
:1019F00010BD00003800002010B586B00024174844
:101A00000094019402940394049413490594016092
:101A100042F2CF01C0E901146321C0E903148461DB
:101A2000FFF720FA08B1FEF751FC4FF48050009008
:101A300069460A48FFF73BFB08B1FEF747FC0494F0
:101A400004A906480594FFF7C5F9002801D0FEF760
:101A50003DFC06B010BD00000004004080000020E6
:101A60001CB500240F4800940D490194016042F216
:101A7000CF01C0E9011409218461C160FFF7F2F9C7
:101A800008B1FEF723FC2020CDE900046946054893
:101A9000FFF7A0F9002801D0FEF718FC1CBD0000DC
:101AA00000100040C80000201CB500240F4800941E
:101AB0000D490194016042F2CF01C0E9011440F2E6
:101AC000E7318461C160FFF7CDF908B1FEF7FEFB95
:101AD0002020CDE9000469460448FFF77BF900287F
:101AE00001D0FEF7F3FB1CBD0014004010010020E4
:101AF0000C4810B50A4901604FF4E1314160002102
:101B000081600C22C160C0E904128161C161FFF7EC
:101B100081FD002803D0BDE81040FEF7D7BB10BD03
:101B20000010014058010020FEE7FEE770477047B3
:101B3000FEF7FEBD30B593B030216846FEF77AFB64
:101B400014210CA8FEF776FB1E480025016841F021
:101B500080510160006800F0805011901A480168BF
:101B600041F4804101600068022400F4804011903B
:101B700001200090000401908001CDE90640192069
:101B800008904FF4A870CDE9090404200B90684632
:101B9000FEF754FF08B172B6FEE70CA90F2081E8EA
:101BA00031004FF4A0500F904FF480501090052159
:101BB0000CA8FEF757FE002801D072B6FEE713B05E
:101BC00030BD00004038024000700040024801680B
:101BD00041F470010160704788ED00E00148FFF7B3
:101BE000D5BA0000380000200148FFF7CFBA000046
:101BF000800000200148FFF7C9BA00001001002052
:101C0000F0B50268254C264D264E274F274B4FF046
:101C1000804CA04209D0604507D0A84205D0B04210
:101C200003D0B84201D0984204D122F0700E4A6825
:101C300042EA0E02A0421BD0604519D0A84217D03C
:101C4000B04215D0B84213D0984211D0184DA842D6
:101C50000ED0184DA8420BD0174DA84208D0174DF2
:101C6000A84205D0164DA84202D0164DA84203D175
:101C700022F44075CA682A434D6922F080022A4343
:101C800002608A68C2620A688262A04201D09842F9
:101C900001D10969016301214161F0BD00000140EA
:101CA0000004004000080040000C00400004014017
:101CB000004001400044014000480140001800403D
:101CC000001C00400020004010B5846842EA032256
:101CD00024F47F440A432243826010BD826822F0CC
:101CE00070020A4342F007018160704710B5036A31
:101CF000046A24F001040462846924F0F00444EAD4
:101D0000021423F00A020A438461026210BD10B576
:101D1000036A23F0100303628369046A23F47043A7
:101D200043EA023224F0A00343EA01118261016216
:101D300010BD10B5806B0021C185C184FFF734FB55
:101D400010BD01680C3151E8002F22F4907241E877
:101D50000023002BF5D10168143151E8002F22F047
:101D6000010241E80023002BF5D1016B012909D1C3
:101D700001680C3151E8002F22F0100241E80023E5
:101D8000002BF5D1202180F83E100021016370471F
:101D900008B590F83E10222901D0022008BD8268C3
:101DA0004FF480539A4201D1016921B1816A9A426C
:101DB0001BD04AB10AE00268816A5268C2F3080285
:101DC0000A80816A891C08E0026972B1026852685F
:101DD00002F07F020A70816A491C8162C18D491E2E
:101DE0000904090CC18503D019E002685268F1E7C3
:101DF0000168CA6822F02002CA600168CA6822F439
:101E00008072CA6001684A6922F001024A61202199
:101E100080F83E10016B012903D0FFF781FC002000
:101E200008BD0021016301680C3151E8002F22F048
:101E3000100241E80023002BF5D101680A68D206A0
:101E400002D50A6849680091818DFFF7ACFAE6E790
:101E500070B5044600680169E26821F440511143FD
:101E600001612169A068E26908436169114308437F
:101E70002168CA6849F20C639A430243CA60206829
:101E80004169A26921F440711143416131492068DF
:101E9000884202D03049884202D1FEF78DFD01E030
:101EA000FEF77AFDE2690023192164253226B2F596
:101EB000004F626828D0A0FB0101930F9200FEF74B
:101EC00081F90146B0FBF5F06FF01802504301EBC9
:101ED000800006EB0010B0FBF5F000F0F002B1FB63
:101EE000F5F002EB0012B1FBF5F06FF01803584368
:101EF00001EB800006EB0010B0FBF5F000F00F00E6
:101F000021681044886070BDA0FB010192185B41FC
:101F1000FEF758F90146B0FBF5F00201B1FBF5F010
:101F20006FF01803584301EB800006EBC000B0FBD4
:101F3000F5F000F0F80002EB4002B1FBF5F0584379
:101F400001EB800006EBC000B0FBF5F000F00700ED
:101F5000D6E7000000100140001401408162828534
:101F6000C28500210164222280F83E2080F83C10C6
:101F70000168CA6842F48072CA6001684A6942F026
:101F800001024A610068C16841F02001C16000207F
:101F900070472DE9F041984617460E460446069DC7
:101FA00027E0681C25D02DB1FEF7BCFBA0EB080094
:101FB000A8421ED920680C3050E8001F21F4D071CF
:101FC00040E80012002AF5D12068143050E8001FC4
:101FD00021F0010140E80012002AF5D1202084F808
:101FE0003D0084F83E00002084F83C000320BDE85A
:101FF000F0812068006836EA000004D00020B84272
:10200000CFD00020F3E70120F9E700000148FFF7F7
:10201000CDB9000058010020FEE70000014A024946
:1020200000F023B88D200008200000200907090EC9
:10203000002804DB00F1E02080F80014704700F075
:102040000F0000F1E02080F8141D704702E008C87E
:10205000121F08C1002AFAD170477047002001E022
:1020600001C1121F002AFBD170472DE9F04116462D
:102070000F460446002503E03946B047641C6D1C3A
:1020800020780028F8D12846BDE8F08113B54FF438
:102090007A73012269460248FFF78AFB00981CBD4B
:1020A00058010020FEF74CFBFFF744FDFFF720FC32
:1020B000FFF7DAFBFFF7D4FCFFF71AFDFFF7F4FC9C
:1020C000FFF766FCFFF798FC032216491648FFF756
:1020D00011FB144C154D0C3C012620780128FCD036
:1020E000022810D00328F8D11148FEF7B5FF114897
:1020F000FEF7C5FF1048FEF7C2FF0022C0212846A8
:10210000FEF70AFBE9E70C48FEF766FF3220FEF710
:10211000F9F90748FEF724FF0648FEF75DFF267031
:10212000DBE700000C000020580100200004024002
:10213000C80000201001002038000020000000002E
:102140000000000001020304060708090000000067
:102150000102030474210008000000202400000094
:102160004C20000898210008240000207C05000075
:102170005C20000801000000410000000500000094
:10218000000000000100000010000000000000003E
:082190000024F400000000002F
:040000050800018965
:00000001FF
